:100000000C9409030C9426030C9426030C942603E9
:100010000C9426030C9426030C9426030C942603BC
:100020000C9426030C9426030C940C300C94E030B2
:100030000C9478290C9426030C9426030C94260324
:100040000C9426030C9426030C9426030C9426038C
:100050000C9426030C941B2A0C9426030C94260360
:100060000C9426030C9426030C9426030C9426036C
:100070000C9426030C9426030C9426030C9426035C
:100080000C9426030C9426030C9426030C9426034C
:100090000C9426030C9426030C9426030C9426033C
:1000A0000C9426030C9426030C9426030020103095
:1000B0000050406000312141006151710012022264
:1000C00000423252007262820013032300534363E2
:1000D00000140424006454740015052500453555AA
:1000E0000075658500160626004636560017072758
:1000F0000047375700281838005848680039294900
:1001000000695979001A0A2A004A3A5A0120103027
:1001100001504060013121410161517101120222FF
:10012000014232520172628201130323015343637D
:100130000114042401645474011505250145355545
:1001400001756585011606260146365601170727F3
:10015000014737570128183801584868013929499B
:1001600001695979011A0A2A014A3A5A29002B00D1
:1001700000000000000000001E00340004213300D5
:1001800000004D001F0036001222140000002A005B
:100190002000370008000D0000002C002100130093
:1001A00018240E0000004A0022001C000C001B0056
:1001B000000000000000000000000000000000003F
:1001C0000000000000000000000000002300090003
:1001D000070005000000000024000A000B34100096
:1001E00000004B002500060017001A000000280040
:1001F000260015001132190000002B0027000F0007
:1002000016311D0000004E0000003100000000000B
:10021000000000000000000000000000037C00005F
:100220003A00000000000000000000003B00000059
:1002300000000000000027783C00000000000000E3
:10024000000028783D0000000000000000000000D1
:100250003E000000000000000000217800000000C7
:10026000000000000000000000000000000000008E
:10027000000020783F0000000000000000002B7804
:100280004000240021001E00000000004100250065
:1002900022001F00000023784200260023002000D7
:1002A00000002478430025022E02310000000000E7
:1002B00044004500000000000000000001000100B3
:1002C0000100010001000000010001000100010027
:1002D0000100010001000100CF0001000100010048
:1002E0000100CD00CE000100D1000100010001009D
:1002F000D0000100D2000100010001000100010056
:1003000000000100010001000000010000000100E8
:1003100001000100000001000000010001000100D7
:1003200001000100000001000100010001000100C6
:10033000A9000100010001000100AC00AA00B60004
:10034000010001000100AB00A80001000100010054
:10035000010001000100010001000100AE000100E8
:10036000010000000001010101010101010102027F
:100370000202020202020203030303030303030453
:10038000040404040404050505050506060606061E
:10039000070707070708080808090909090A0A0AD8
:1003A0000B0B0B0C0C0C0D0D0D0E0E0E0F0F0F107A
:1003B0001011111112121313141415151616171704
:1003C000181819191A1A1B1B1C1D1D1E1E1F202070
:1003D000212222232424252626272829292A2B2CBA
:1003E0002D2D2E2F30313232333435363738393ADD
:1003F0003B3C3D3E3F404142434445464748494AD5
:100400004C4D4E4F50515354555658595A5B5D5EA2
:100410005F616264656668696B6C6D6F707273753D
:1004200077787A7B7D7E8082838587888A8C8E8FA1
:1004300091939596989A9C9EA0A2A3A5A7A9ABADCF
:10044000AFB1B3B5B7BABCBEC0C2C4C6C9CBCDCFBD
:10045000D1D4D6D8DBDDDFE2E4E7E9EBEEF0F3F56B
:10046000F8FAFDFF20034500720067006F004400AA
:100470006F007800200045005A00200047006C0003
:100480006F007700000028035A005300410020004D
:1004900054006500630068006E006F006C006F0020
:1004A0006700790020004C006100620073000000CA
:1004B0000403090409025400030100A0FA0904001E
:1004C000000103010100092111010001224400077C
:1004D000058103080001090401000103010200096C
:1004E00021110100012247000705820310000109C4
:1004F0000402000103000000092111010001226D26
:10050000000705830320000112010002000000081B
:100510009732764901000102000105010980A1011D
:10052000850319012AB700150126B700950175103A
:100530008100C0050C0901A101850419012AA0024E
:10054000150126A002950175108100C0050109065C
:10055000A1018506050719E029E715002501950881
:10056000750181020507190029EF1500250195F095
:10057000750181020508190129059505750191028A
:10058000950175039101C005010902A1010901A1AD
:100590000005091901290815002501950875018133
:1005A000020501093009311581257F950275088101
:1005B0000609381581257F950175088106050C0A05
:1005C00038021581257F950175088106C0C0050197
:1005D0000906A101050719E029E71500250195087D
:1005E000750181029501750881010507190029FF30
:1005F000150026FF009506750881000508190129D8
:100600000515002501950575019102950175039168
:1006100001C011241FBECFEFDAE0DEBFCDBF12E074
:10062000A0E0B1E0E4EFF9E602C005900D92A03A37
:10063000B107D9F726E0A0EAB2E001C01D92AA33C3
:10064000B207E1F70E945F140C9485340C9400000B
:100650008098889A8198899A84988C9A85988D9A9E
:1006600086988E9A87988F9A08952098289821982E
:10067000299822982A9823982B9852985A985398F8
:100680005B983E9846980895A1E0B0E0EAE4F3E074
:100690000C94C332873008F52091EA013091EB01C8
:1006A000232BB9F421E030E001C0220F8A95EAF74C
:1006B0002095298304E610E021E030E0AE014F5F91
:1006C0005F4F62E180E40E94AC2B9093EB0180933A
:1006D000EA012196E4E00C94DF328A30B1F038F47C
:1006E000883069F0893071F0209A2898F2CF8C30E8
:1006F00091F070F08D30C1F73E9A4698EACF219A7A
:100700002998E7CF229A2A98E4CF239A2B98E1CF11
:10071000529A5A98DECF539A5B98DBCFA1E0B0E0B3
:10072000E4E9F3E00C94C5328730D8F48091EA0113
:100730009091EB01892BE9F4198224E630E041E045
:1007400050E0BE016F5F7F4F80E40E94482B909382
:10075000EB018093EA01898180952196E2E00C9477
:10076000E1329FB18FB1869586958C739370892BFA
:10077000F3CF80E0F2CF0E94D00490E09093EB01A1
:100780008093EA010E9435030E9428030895EF92A6
:10079000FF920F931F93CF93DF938091EA01909183
:1007A000EB01892BA1F08091A2028F5F8093A202BE
:1007B00081110DC00E94D00490E09093EB018093D2
:1007C000EA01892B21F40E945A040E94D81F0DEFE0
:1007D00015E0C0E0D0E087E0E82EEC0E8C2F0E9400
:1007E00044038E2D0E9444038C2F0E948E038F732E
:1007F000F80191918F01F12C891721F031978083B5
:10080000FF24F3948E2D0E948E038F73F80196813E
:10081000891779F0868381E08F29D82B0E943503D0
:10082000CF5FC730C1F68D2FCDB7DEB7E6E00C94B1
:10083000DD3280E0F1CF0E94D00490E09093EB0194
:100840008093EA010E9435030E942803EBE0F6E062
:10085000119286E0E931F807D9F70895259A2D9A83
:100860000895269A2E9A0895279A2F9A08955698B1
:100870005E98089525982D98089526982E980895A5
:1008800027982F9808950E9437040E943A040E94E6
:100890003D040E944004089590E090938900809365
:1008A000880090938B0080938A0090938D008093B2
:1008B0008C0008950E9443048FEF0E944C040E9414
:1008C0002E042FEF80E792E0215080409040E1F726
:1008D00000C000000E9431042FEF80E792E0215019
:1008E00080409040E1F700C000000E9434042FEFE8
:1008F00080E792E0215080409040E1F700C0000086
:100900000E943A042FEF80E792E02150804090400F
:10091000E1F700C000000E943D042FEF80E792E065
:10092000215080409040E1F700C000000E94400448
:100930000E944304089589EA8093800089E08093AF
:10094000810024982C983F988AB18F7C8AB96E9840
:10095000479A8BB180638BB9769A0E94E70F6093B8
:10096000F7057093F8058093F9059093FA05677081
:100970002FEF629FC00111249595879595958795D6
:100980000E944C048091F70584FF08C08FEF0E94FD
:10099000F5200E945A040E947F13089580E0F7CF4B
:1009A000A2E0B0E0E6EDF4E00C94C33280E290E027
:1009B0009093EB018093EA018091A30281110EC014
:1009C0000E94CE2A81E08093A3022FEF83ED90E373
:1009D000215080409040E1F700C0000019828FE371
:1009E0008A8304E610E022E030E0AE014F5F5F4F03
:1009F00060E080E40E94AC2B9093EB018093EA01CD
:100A0000892B69F422E030E0AE014F5F5F4F6CE06C
:100A100080E40E94AC2B9093EB018093EA018091DB
:100A2000EA012296E4E00C94DF321092F70510926E
:100A3000F8051092F9051092FA0584E08061809320
:100A4000F7056091F7057091F8058091F90590918F
:100A5000FA050E94EC0F0E94FA0F08950E9480137D
:100A600008958330B8F46E30A8F4463098F450E01E
:100A700096E0699F400D511D1124FA0194E5899F6C
:100A8000E00DF11D1124EE0FFF1FE459FE4F85917B
:100A90009491089581E090E008950E9431050895B1
:100AA00081E008950E945005089581E008950E9414
:100AB000500508950E945705089508950E945D0508
:100AC0000895A6E0B0E0E7E6F5E00C94C43249836F
:100AD0005A839E833091A90289819A8131111AC06B
:100AE0003E81332399F0222389F00E94710B182F45
:100AF000682F89819A810E944D0B69817A81812FAB
:100B00000E947B122696E3E00C94E0320E945F0B79
:100B1000182FF3CF0E94710B69817A81F1CFFC010C
:100B2000262F4081518162817381848195810E9449
:100B300061050895CF93DF93EC0161E00E948F057A
:100B4000BE010E945205DF91CF910895CF93DF93AC
:100B5000EC0160E00E948F05BE010E945E05DF91FE
:100B6000CF91089581E008950E94B2050895CF9332
:100B7000C82F0E94220A8C2F0E94B4052FEF84E315
:100B80009CE0215080409040E1F700C00000CF91F0
:100B9000089581E00E94B7050E943F2A089580E0F1
:100BA0000E94B7050E94712A08950F931F93CF9357
:100BB000DF938C0161E00E948F05EC01B8010E9477
:100BC0005A05811106C080E0DF91CF911F910F91EE
:100BD0000895B801CE010E944F278823A1F3B801E0
:100BE000CE010E947923882371F3B801CE010E94BF
:100BF0004F23882341F3B801CE010E94F2228823BB
:100C000011F3F8018581882361F0C330FCE7DF0729
:100C1000E9F058F4C115ECE7DE07A9F0C130DC4774
:100C2000B9F0C8010E945505CFCFCB358CE7D80766
:100C3000A9F0CC35ECE7DE0771F0CA35DC4789F75F
:100C40000E94B80FEECF0E94C905BDCF0E94C00F11
:100C50000E94CF05B8CF0E94AE0FE3CF0E94BC0F19
:100C6000E0CF0E9456290E94731F0E94600681E017
:100C70000E94F11F08950E94640680E00E94F11F07
:100C80000E945A290895089581E008950895CF9308
:100C9000DF93D82F0E944406C82F882319F08D2F88
:100CA0000E9446068C2FDF91CF9108950895CF932F
:100CB000C82F0E9443068C2F0E944706CF910895AB
:100CC00080E00E94570608950E9498270E945706C8
:100CD0000895CF930E949827C82F8091A4028C1763
:100CE00079F0C093A4020E94E4296093A502709356
:100CF000A6028093A7029093A8028C2F0E94570609
:100D0000CF910895ADE0B0E0E8E8F6E00C94C5328C
:100D1000488759876A877B878C879D8791110E94B6
:100D2000BE0E1F8286E0FE013896DE01119601900C
:100D30000D928A95E1F78D8181110DC029813A814B
:100D40004B815C816D817E818F810E94080E2D9682
:100D5000E2E00C94E132CE0101960E949A058111E5
:100D6000EDCFF5CFFC012481213021F480819181E8
:100D70000E94A30B0895662329F00E94DA240E94A2
:100D8000BF2508950E944625FACFCF93C82F882308
:100D9000C9F08238C9F40E94A52781FD13C089E3F8
:100DA0000E94C1280E94520F2FEF87EE93E021503E
:100DB00080409040E1F700C0000089E30E94D828FD
:100DC0000E94520FCF9108958338A1F40E94A52765
:100DD00080FDF8CF83E50E94C1280E94520F2FEFBB
:100DE00081EE94E0215080409040E1F700C0000087
:100DF00083E5E4CF8438A1F40E94A52782FDE2CFE9
:100E000087E40E94C1280E94520F2FEF81EE94E0E8
:100E1000215080409040E1F700C0000087E4CECF31
:100E20008CEF8C0F813A70F48C2F0E943828882325
:100E300029F08C2F0E94D8280E94520F8C2F0E94DC
:100E4000C128BECF80E28C0F883048F4C77081E0A3
:100E500001C0880FCA95EAF70E94A10EB1CFEBE559
:100E6000EC0FE33040F4F0E0ED5BFD4F808190E06B
:100E70000E94CC27A7CFE8E5EC0FEB3150F4F0E06F
:100E8000EE0FFF1FE35FFD4F808191810E94F127EC
:100E900099CF83E38C0F833108F094CF61E08C2FDE
:100EA0000E94BB068FCF882309F456C0823879F49C
:100EB0000E94A52781FF50C089E30E94C1280E949B
:100EC000520F89E30E94D8280E94520F0895833858
:100ED00059F40E94A52780FF3FC083E50E94C128E6
:100EE0000E94520F83E5EECF843859F40E94A52763
:100EF00082FF32C087E40E94C1280E94520F87E41B
:100F0000E1CF9CEF980F913AE8F290E2980F983079
:100F100050F4877091E001C0990F8A95EAF7892F04
:100F20000E94A70ED1CF9BE5980F933028F490E054
:100F300080E00E94CC27089598E5980F9B3128F413
:100F400090E080E00E94F127089593E3980F933199
:100F500018F460E00E94BB0608951F93CF93DF93BF
:100F6000182FEB010E94C506209739F4812F0E94AB
:100F70005307DF91CF911F9108958FE99FE001976B
:100F8000F1F700C000002197EFCF70E060E08933F7
:100F900011F460E570E00E94AD070895882321F008
:100FA0000E94A10E0E94520F0895882321F00E94F2
:100FB000A70E0E94520F0895B0E0A0E0E2EEF7E025
:100FC0000C94BE326C01D62FC72FFC01158106810F
:100FD00002950F700E94970EE82E8823F9F0E12EFB
:100FE0001123E1F08C2F807F803461F080E28D0F3F
:100FF000883008F18C2F807E803221F4D230D8F0F6
:101000000023C9F08091FC0582FF15C082E00E9498
:10101000820F0E94970E91E0E82EE926BC2EB29432
:101020009FE0B922FBE0FB15B8F1EB2DF0E0E957AA
:10103000FB4C0C94AF32E12CF1CF0C2F0F70C07F22
:1010400011F00295007F112399F0002359F080E2FE
:101050008D0F883010F0D11107C0802F0E94A10E93
:101060000E94520F8D2F5AC0802F0E94B10EF8CFD0
:101070008D2F0E945307002379F080E28D0F883076
:1010800010F0D11104C0802F0E94A70E03C0802F42
:101090000E94B70E0E94520FEB2DE850FF0B3497C1
:1010A00020F40E9498270E945706EE2089F00E94A3
:1010B000930E80FD0DC0F60115820E948D0E0E94D8
:1010C000AB0AC6010E94E9090E948D0E0E94BB0A6C
:1010D000CDB7DEB7E9E00C94DA322C2F2F70F22E68
:1010E000C07FC03219F0F29480EFF822DD2341F086
:1010F000D130D1F1112309F443C00023F1F0B2CF74
:101100008091FC0582FD15C0112359F0FF2029F0C4
:101110008F2D0E94A10E0E94520F80E00E94C506F2
:10112000BBCF80E00E945307FF2009F4B5CF8F2D7D
:10113000ABCF112369F0011104C08F2D0E94CE079F
:10114000ABCF013009F0A8CF8F2D0E94D50EA4CFD0
:101150000111A2CF8F2D0E94D5078F2D0E94E10E85
:101160008F2D0E94C50E98CF112321F0023008F078
:1011700093CFE3CF011190CF8F2D0E94D5078CCF55
:101180000023D1F3D93349F43FEF87EE93E0315098
:1011900080409040E1F700C000008D2F0E9453076F
:1011A0007BCF8C2F86958695837069F0813009F00E
:1011B00073CF8D2F9C2F9370111102C080E090E0AF
:1011C0000E94F12769CF8D2F9C2F9370111102C0BF
:1011D00080E090E00E94CC275FCF612F8D2F0E948E
:1011E000BB065ACF8C2F8370A1F5111155CF4D2F0F
:1011F000429546954770440F440F2D2F2F7030E0D5
:10120000042E02C0220F331F0A94E2F790E080E020
:10121000D4FF09C08FE090E002C0880F991F4A9563
:10122000E2F780959095C695C695C370822B932B57
:10123000C23049F058F4C13019F00E947B0A2CCF1B
:101240000E94720A29CF0E94840A26CF0E946F0A48
:1012500023CF8695112311F08C2F8170882309F4F8
:101260001BCF4D2F429546954770440F440F2D2FAD
:101270002F7030E0042E02C0220F331F0A94E2F7D1
:1012800090E080E0D4FF09C08FE090E002C0880FBA
:10129000991F4A95E2F780959095C695C695C370BB
:1012A000822B932BC23049F058F4C13019F00E94C0
:1012B000E60AF2CE0E94DD0AEFCE0E94EF0AECCEE3
:1012C0000E94930AE9CECF70112329F08C2F0E943F
:1012D000AB0A8D2F33CF8D2F0E94D5078C2F0E9404
:1012E000BB0ADACED23F39F160F4D03FB9F0D13F3A
:1012F00081F0112309F445C00111B4CE8C2F8F71F8
:101300001EC0D33FF9F0D43FA1F78091FC0582FDC8
:1013100023C08C2F8F71112311F311C0112339F0C9
:101320000111BACE8C2F8F710E94CD0AB5CE02303A
:1013300008F0B2CEF7CF8C2F8F711111D0CF0E9451
:10134000AB0AAACE112329F08C2F8F710E949F0A1D
:10135000A3CE0E949A0AA0CE112349F0CF718C2F00
:101360000E94AB0A63E08C2F0E94640F95CE81E04F
:101370000E94820F023008F48FCE82E00E94820F1A
:101380008BCE002359F0D93309F007CFEFEFF7EEFA
:1013900023E0E150F0402040E1F7FDCE8C2F8F712B
:1013A0009ECF0F931F93CF93DF93EC0168817981D8
:1013B0008D810E94AE0B8C010E94F80A0E946E0A79
:1013C000B801CE010E94DC07DF91CF911F910F91F0
:1013D0000895CF93DF93EC018C81882399F0CE019F
:1013E0000E94D505811111C00E94970E882351F0EB
:1013F0008D81882339F08091FC0582FF03C082E053
:101400000E94820FDF91CF910895CE010E94D109F1
:10141000CE010E94A605F6CF90E080E00E94CC2786
:1014200090E080E00E94F1270E94BE0E0E94520FC1
:101430000E94DB250E94BF2508950E94EF280E948C
:101440000C0A08950E94AE0E0E941D0A08959295FE
:101450009F70963091F058F4925F9F70923058F4DC
:10146000803F19F030F4883E30F481E008959A5FAF
:10147000F4CF843FD1F380E00895883EB0F3813FFC
:10148000D1F7F3CFFC012481222339F080819181AF
:101490000E94A30B0E94270A089580E00895A6E009
:1014A000B0E0E5E5FAE00C94C5322696E2E00C9453
:1014B000E132A7E0B0E0EFE5FAE00C94C532279600
:1014C000E2E00C94E13208950E94630A08950E94BC
:1014D000640A9093D9028093D802089508950E94D7
:1014E000670A08952091D8023091D902822B932B5C
:1014F0000E94670A08952091D8023091D902822370
:1015000093230E94670A08952091D8023091D9024E
:10151000822793270E94670A08950E94630A08950C
:101520000E948D0A08950E94900A9093D70280939A
:10153000D602089590E080E00E94930A089521E089
:1015400030E0A90102C0440F551F8A95E2F7CA0195
:101550000E94930A089521E030E002C0220F331F59
:101560008A95E2F78091D6029091D702822B932B35
:101570000E94930A089521E030E002C0220F331F39
:101580008A95E2F7209530958091D6029091D70206
:10159000822393230E94930A089521E030E002C041
:1015A000220F331F8A95E2F78091D6029091D702DD
:1015B000822793270E94930A08952091D6023091A2
:1015C000D702822B932B0E94930A08952091D60272
:1015D0003091D702822393230E94930A0895209189
:1015E000D6023091D702822793270E94930A08954A
:1015F0000895262F277091E001C0990F2A95EAF7E8
:1016000023E0769567952A95E1F7660F771F660FB9
:10161000771FFA01E60FF71F50E040E0682F70E0F7
:101620008191DF0111979B01042E02C03695279509
:101630000A94E2F7217021952827292328272C9343
:101640004F5F5F4F4430510559F70895A82FA77099
:1016500023E0969587952A95E1F7880F991F880FC3
:10166000991FFB01E80FF91F50E040E080E0219155
:1016700030E00A2E02C0369527950A94E2F72170D1
:101680003327042E01C0220F0A94EAF7822B4F5F02
:101690005F4F4430510559F70895262F9E3070F45E
:1016A000863060F4682F70E086E0989F600D711DB1
:1016B00011244AEA52E0822F0E94F90A0895292F44
:1016C0009E3068F4863058F490E06AEA72E036E0C2
:1016D000239F800D911D11240E94260B089580E008
:1016E0000895B0E0A0E0E7E7FBE00C94BE327C0197
:1016F0000091D6021091D7028091D8029091D90220
:10170000082B192BCFE0D0E0CC24C394D12CBC2ED5
:10171000C6010C2E02C0880F991F0A94E2F780239D
:101720009123892B49F4219790F7B12C8B2DCDB7BC
:10173000DEB7E9E00C94DA32B7018C2F0E948712F1
:10174000019789F3F3CFCF93DF93EC010E94710BE4
:10175000BE010E948712DF91CF9108951F93CF930E
:10176000DF93EB019091A902992339F0CB010E94FC
:10177000A30BDF91CF911F910895882369F0CB01CE
:101780000E94710B182F682FCE010E944D0BBE01D5
:10179000812F0E948712EDCFCB010E945F0B182F83
:1017A000F6CF1F93CF93DF93C091DA0217E08091B9
:1017B000DB028C1304C0DF91CF911F910895D0E01C
:1017C0001C9FF0011D9FF00D1124E452FD4F20815C
:1017D0003181428153816481758186810E94590AD9
:1017E0002196C770E4CF20911403309115034091E6
:1017F000160350911703609118037091190380919B
:101800001A030E94590A0895CF93DF9380911A0317
:10181000807F09F04DC080911903882309F448C0E6
:10182000E091DA025091DB02C0911503D0911403CC
:10183000609116037091170347E05E17C9F18E2F70
:1018400090E0E49FF0011124E452FD4F2481222313
:1018500091F1489FF001499FF00D1124DF01A4523E
:10186000BD4F11962C9111972C1325C02C912D133F
:1018700022C015962C91159721111DC012962D91FD
:101880003C91261B370B283C3105A8F480911A03A4
:101890008F70806180931A03EE51FD4F80818F70AD
:1018A0008061808384E193E00E94E9090E94D10B6A
:1018B000DF91CF910895FC013196E770BECF482F9C
:1018C0002091DA029091DB0257E0291302C080E0F8
:1018D000089530E0529FF001539FF00D1124E4521F
:1018E000FD4F8181681306C08081481303C0858144
:1018F0008111EECF2F5F3F4F2770E7CFA4E1B0E01B
:10190000E4E8FCE00C94BB328C0186E0F801DE01D7
:101910001F9601900D928A95E1F7F8018481E58088
:1019200094E1A92E93E0B92E9091180391111FC054
:101930008823D1F0EE20A9F0C8010E94420AF82EB7
:10194000882379F087E0F801D50101900D928A95FE
:10195000E1F7C5010E94B2060E94040C0E94F30B3D
:101960005FC0C8010E94E909FF24F39459C0C080F8
:10197000D18082809380F0901903209116033091DA
:101980001703A401421B530BFF2009F4F9C0483C84
:10199000510508F0A7C0882309F442C090911503AF
:1019A00080911A03282F207F09F05CC09D1116C07A
:1019B00090911403C91212C0E1104EC08F70806163
:1019C00080931A030E94F30B84E193E00E94E909DB
:1019D00080911A03F8018683F12C22C0E1103CC0EB
:1019E0006D2D8C2D0E945F0C6D2D8C2D0E945F0C37
:1019F000E82E8111F1CFCF86D88A8F8598890E94F1
:101A0000A30B292F22952F70243078F49F70223059
:101A1000A8F09923B9F0F8019681907F99F4FE2CF3
:101A20008F2D6496ECE00C94D7322A5F2F70223011
:101A300068F0C8010E94E909EF2CF1CF992311F059
:101A4000882369F3805E883050F3F3CF803F38F30A
:101A5000815F833070F7E3CF80911A0381608093B8
:101A60001A03BACF9D1113C090911403C9120FC06D
:101A7000E1100DC08683C8010E94E90987E0F801E2
:101A8000A4E1B3E001900D928A95E1F767CFC80118
:101A90000E94420A882309F464CFEE2009F461CF42
:101AA00080911A03803288F020911403309115033D
:101AB000398728879B868A86909118039C871D8684
:101AC0008E87CE0108960E94E90987E0F801A4E11B
:101AD000B3E001900D928A95E1F70E94040C0E94F8
:101AE000F30B42CF90911A03292F207FA1F4682D88
:101AF0009A8A898AA6017A899E2D0E944F0A84E1DA
:101B000093E00E94E90987E0F50111928A95E9F7CF
:101B10000E94F30B61CF882309F482CF80911503D3
:101B20008D1110C080911403C8120CC0E1100AC0BE
:101B30009683C8010E94E90987E0F50111928A9510
:101B4000E9F76ECFC8010E94420A882309F409CF41
:101B5000EE2009F406CF80911A03803208F4B5CF45
:101B600020911403309115033A8329839C828B8240
:101B7000909118039D831E828F83CE010196A3CF7F
:101B8000483C5105B8F5882309F4EECEFE2CEE2032
:101B900009F4E7CE809115038D111EC080911403C6
:101BA000C8121AC080911A0380FD0DC0982F907F33
:101BB00051F08683903F09F45ECF982F907F905F1D
:101BC0008F70892B57CF87E0F801A4E1B3E0019033
:101BD0000D928A95E1F724CFC8010E94420A811133
:101BE00074CF80911A03816080931A03C8010E9408
:101BF000E90916CF682D9A8A898AA6017A899E2DCD
:101C00000E944F0A87E0F50111928A95E9F7A6CE66
:101C1000AEE0B0E0EEE0FEE00C94C43228873987F5
:101C20004A875B876C877D878E87CE0108960E94E6
:101C30007E0C8823B1F06C85662341F028853985B8
:101C40004A855B857D858E850E94590A17E08091C3
:101C5000DA029091DB0289133DC02E96E3E00C94EA
:101C6000E03287E0FE013896DE01119601900D9278
:101C70008A95E1F78C85882349F32091DB0230E0D7
:101C8000C9010196877099274091DA024817190611
:101C900099F097E0929FD001939FB00D1124A45228
:101CA000BD4FFE01319601900D929A95E1F7809318
:101CB000DB020E94D10BCACF0E94220A1092DB02E3
:101CC0001092DA0287E0E4E1F3E0DF011D928A95E9
:101CD000E9F7BCCF819FC001112484529D4F0E941F
:101CE0007E0C882309F4B9CFE091DA021E9FF0013F
:101CF0001124E452FD4F208131814281538164815E
:101D0000758186810E94590A8091DA0290E00196DD
:101D1000877099278093DA029ACF80914303869542
:101D200086958695089580914303877008959091D4
:101D30004303977081E009F480E0089580916F0378
:101D4000089590916F03892B80936F030895809578
:101D500090916F03982390936F03089510926F03EF
:101D6000089590916E03892B80936E03089580955A
:101D700090916E03982390936E03089510926E03D2
:101D8000089508950E94C10E089590914403292F4B
:101D9000282331F080958923809344030E94C20E4A
:101DA000089508950E94D10E089590914503292F1A
:101DB0002823281729F0982B909345030E94D20ED0
:101DC000089590914503292F282331F08095892388
:101DD000809345030E94D20E089580914503882385
:101DE00029F01092450380E00E94D20E0895CF930F
:101DF000C0916F0380916E03C82B809145038823A7
:101E000031F0C82B0E94162881110E94ED0E8C2FF4
:101E1000CF910895CF93DF93C091EE01D091EF0160
:101E20000E94F70E8883C091EE01D091EF0148E047
:101E300050E06BE373E0CE010E942034892B59F00F
:101E400088E0FE01ABE3B3E001900D928A95E1F7E3
:101E5000CE010E94A827DF91CF910895CF93DF9301
:101E6000C091EC01D091ED010E94F70E8983C091E1
:101E7000EC01D091ED0140E250E06BE173E0CE0166
:101E80000E942034892B59F080E2FE01ABE1B3E0DF
:101E900001900D928A95E1F7CE010E94B327DF9160
:101EA000CF91089580910902882339F08091FB0534
:101EB00087FF03C00E942E0F08950E940A0F089505
:101EC00008950E94600F08959091FC0592FF11C043
:101ED00098E0899F90011124622B609343030E9434
:101EE000AB0A809143038695869586950E94610F83
:101EF00008950E94AB0A08951092430380E00E9467
:101F0000610F089590914303809589238093430343
:101F1000282F277069F4891759F09091FC0592FFDA
:101F200007C08695869586950E94BB0A0E947C0F05
:101F300008959091FC0592FB222720F9281769F05B
:101F400080FB92F99093FC058091FB059091FC0534
:101F50000E94E10F82E00E94820F08958091FC05AB
:101F600082FB882780F991E089270E94990F0895C4
:101F700081E00E94990F089580E00E94990F0895D2
:101F80006FEF7FEF90E080E00E947F34089590E053
:101F900080E00E944B3421E0863E9E4F09F020E015
:101FA000822F089582E090E00E943D34089583E0FE
:101FB00090E00E943D34089584E090E00E944B340C
:101FC0000895BC0184E090E00E947F3408958FE082
:101FD00090E00E9445340895AB01BC018FE090E091
:101FE0000E9473340895AB01BC0183E190E00E942C
:101FF0007334089560E070E0CB010E94F30F089500
:10200000A8E0B0E0E6E0F0E10C94C53266EE7EEFC9
:1020100090E080E00E947F3460E082E090E00E94E7
:10202000613481E090E09093D9028093D80261E01E
:1020300083E090E00E94613460E074E184E090E02D
:102040000E947F3460E086E090E00E94613460E0AE
:1020500087E090E00E94613440E050E0BA0188E0FF
:1020600090E00E94733460E084E290E00E9461346A
:1020700060E087E190E00E94613460E08CE090E0F5
:102080000E94613460E08DE090E00E94613419822A
:102090001A821B821C821D821E821F82188648E0C3
:1020A00050E068E170E0CE0101960E94513440E0BA
:1020B00050E0BA0180E290E00E9473340E9415055E
:1020C0002896E2E00C94E1320E9400100895682FF7
:1020D0008EE090E00E9461340895A6E0B0E0E3E76E
:1020E000F0E10C94C3320E94D8298C0180917003D6
:1020F000909171038017910781F019821A820E94D2
:10210000D829682F49815A81792F80E090E00E9478
:10211000820610937103009370032696E4E00C94FA
:10212000DF320E94E42960938403709385038093D7
:102130008603909387036093800370938103809359
:102140008203909383030895089508950E94A41034
:10215000089508950E94A91008958DE793E10E94C3
:102160006C140E94A5100E94A610089581E00895A5
:102170000E94B61008950E94B6100895089508951B
:102180000E94BE100E94BF1008950E94C70F8111C7
:1021900002C00E9464100E94D20F809388030E94A4
:1021A000DC0F9093FC058093FB050E94D70F90E015
:1021B0000E946F0A8091D6029091D7020E94900AE5
:1021C00008950E94CF290E9488130E94C5100E9482
:1021D00056060E94D81F0E94AA100895A6E0B0E0FB
:1021E000E4EFF0E10C94BC320E94B81081110CC0F5
:1021F0000E946D100E94731F0E94FD250E946906B7
:102200002696EBE00C94D8320E949A1382E7A82E0F
:1022100083E0B82E750110E0F70101917F01812F55
:102220000E9481131F5F1E3009F444C00817A1F3F8
:102230008091880381FD0E9487130E94BB10982E15
:1022400010E0812F0E948113F82EF50181915F012A
:10225000F81651F100E0EE24E394DF2CD8268D2D02
:102260008E21D9F0CC24C3948F2D8E2109F4C12C5A
:10227000992071F009831A830E94D829682F8B83D3
:102280009C8349815A81792F81E09C2D0E9482068E
:102290004C2D602F812F0E946B180F5FEE0C0630C3
:1022A000F1F6F5013197F0821F5F1E3051F60E9462
:1022B0009110A0CF0813BCCF9BCF1F93CF93DF9378
:1022C0000E948C12EC01C11580E5D807F0F5C1150C
:1022D00080E4D80708F09CC0C03ED10520F5CD3C75
:1022E000D10508F082C0C83AD10578F4C53AD105C5
:1022F00008F073C0C130D10519F1209709F1C4303D
:10230000D105F0F4D0E0C0E01BC0C33CD105D0F74C
:10231000C85AD0E0CC0FDD1FCA5BDD4F0990D881D1
:10232000C02DD4640DC0C11580E2D80708F0D1C01B
:10233000C11581E0D80708F05AC0C83ED10510F792
:10234000CE01DF91CF911F910895C03682E5D80765
:1023500018F5C03482E5D80708F06BC0C03282E5BA
:10236000D80708F05FC0C11582E5D80708F497C008
:102370002C2F2695269580E2289F900111248C2FE2
:102380008370C1E0D0E002C0CC0FDD1F8A95E2F778
:10239000C22BD32BDD68D4CFC03A82E5D80760F4D6
:1023A000C03882E5D80708F459C0CF71D0E0DC2FDF
:1023B000CC27C46FD06AC4CFC03C82E5D80708F4EC
:1023C00062C0C03E82E5D80708F09CCFDC2FCC2746
:1023D000CC27DF71C06FD06AB3CFC55AD0E0C458E4
:1023E000DD4FC881D0E0D064ABCFD065A9CF8D2FB1
:1023F0000E942E13182FCE0199270E948C12C12FF4
:10240000D0E0DC2FCC27CC27DF71C82BD92B98CF7D
:10241000CE0199270E948C12CC27DF70C82BD92BB4
:10242000D06A8ECFCF71D0E0DC2FCC27C16FD06ABD
:1024300087CF2C2F26952695277080E2289F900124
:1024400011248C2F8370C1E0D0E002C0CC0FDD1FBF
:102450008A95E2F7C22BD32BDC6872CF2C2F2695FE
:102460002695277080E2289F900111248C2F83707D
:10247000C1E0D0E002C0CC0FDD1F8A95E2F7C22B8D
:10248000D32BDA685DCF8C2F8F710E942E13C82F4B
:10249000D0E0DC2FCC27CC27DF71D06251CF8C2F3E
:1024A0008F710E942E1355E0D695C7955A95E1F786
:1024B000CF70D0E0DC2FCC27282F30E084FF05C080
:1024C00044E0220F331F4A95E1F7C22BD32BD0698A
:1024D00037CF8D2F8F710E942E13182FCE01992781
:1024E0000E948C12C12FD0E0DC2FCC27CC27DF71CB
:1024F000C82BD92BD2CF462F7E3030F4663020F453
:10250000672F0E944D05089590E080E008950E9495
:102510007B120E945D11089582389105B9F1B0F4E3
:102520008133910509F47DC048F48932910509F49D
:102530006DC08A32910509F47BC0089585339105F9
:1025400009F45FC08933910509F10895833E91052F
:10255000D9F138F4803E910529F1823E910579F157
:102560000895863E9105D9F1873E910509F43EC054
:10257000843E910541F52091FC0521FF24C0809106
:10258000FB0584FD19C087EE90E008952091FB05BE
:10259000237009F05AC02091FC0523FF14C089E282
:1025A00090E008952091FB0520FD38C03091FC0596
:1025B00030FF09C024FF43C090E080E008952091DF
:1025C000FB0522FDF7CF08952091FB0522FD3AC0BF
:1025D0003091FC0530FD39C024FFF5CFEDCF2091BF
:1025E000FB0523FFF0CF24FDE7CFCDCF2091FB05E6
:1025F00023FD2EC03091FC0531FFEECF84EE90E03C
:1026000008952091FB0525FFDECFC9CF2091FB0562
:1026100025FD21C02091FC0523FFD5CF89E390E063
:10262000D2CF2091FB0526FFCECF8AE290E008951D
:102630002091FB0526FFC7CF81E390E0089583EE4C
:1026400090E0089582EE90E0089580EE90E0089585
:1026500086EE90E0089585E390E008959091FB0563
:1026600092FF10C041E0282F2471243009F040E08F
:1026700031E0282F2871283009F030E0431711F09D
:102680002CE0822793FF10C041E0282F24712431D1
:1026900009F040E031E0282F2871283109F030E0BE
:1026A000431711F02CE082273091FC0530FF10C059
:1026B00051E0282F2171213009F050E041E0282F0E
:1026C0002871283009F040E0541711F029E08227E2
:1026D00031FF10C041E0282F2171213109F040E085
:1026E00031E0282F2871283109F030E0431711F02C
:1026F00029E0822794FD877E089580E0089508955B
:102700000895E82FF0E0E55FF94F8081089508957E
:102710000E94BB03EDEFF5E0ABE0B6E011921D9235
:1027200086E0EB30F807D1F78EE00E94AD130E94EF
:102730009B040895CF938DEF95E00E94C703282F47
:102740004EE06BE076E08DEF95E00E94C013C82F5D
:102750000E942E058C2FCF910895CF93C82F90E023
:102760000E94EC3280938D0390938E03282FFC01FE
:102770008E2F821B8C1710F0CF9108951192F8CFF5
:10278000B0E0A0E0E6ECF3E10C94C032082FF92EA3
:10279000E62ED72E142FC22F10928903D0918A03D0
:1027A000DD2309F451C00E94D82920918B03309178
:1027B0008C03AC01421B530B9A0190938C038093C2
:1027C0008B034F3F510509F0C8F4452B99F0109247
:1027D0008A0310928F0340918D03E42FF0918E03B2
:1027E00090E030E08E2F841B811758F030938A03DD
:1027F00090938F03C11136C0CD2F28C02FEF30E04A
:10280000E6CF8081882321F0281720F010829D2FA9
:102810003196E8CF821B80833D2FFACF99913C916E
:10282000391779F0308131110CC060834C91492700
:10283000282F30E0242B81E0232B09F480E09C93A7
:1028400021E0319611961EC0211106C080918F03A0
:10285000882301F1C11106C00E94D82990938C03EE
:1028600080938B0310928F0350918D038091890385
:1028700020918A03AE2DBD2DC02FDF2DE52FF091C5
:102880008E036EE19E2F951B911740F28093890372
:1028900020938A0380918903CDB7DEB7E7E00C94DB
:1028A000DC320E945E2D0E94E1100E946B2D089583
:1028B0000E94702D0E94EE100E948A2D08950E94A1
:1028C00071290E94442D0E94AD100E9451140E9453
:1028D00058140E94C010FBCF9093A1028093A002D5
:1028E0000895EF92FF920F931F93CF93DF93EB0125
:1028F000E82FD1110FC0442321F0F0E0EC59FC4F38
:10290000E4916E2F7E2F8E2F90E0CDB7DEB7E6E0FC
:102910000C94DD320D2F10E0282F30E0442329F0F5
:102920002C593C4FF901249130E0F6E0CF9FC001D3
:102930001124EFEFF0E0BF010E948732AB018C2F32
:1029400090E0880F991FA5E5A49FB001A59F700D89
:102950001124861B970B982F990F980FBF01601BAE
:10296000710B629FD001639FB00D729FB00D112457
:102970008B2F9D9FB0011124672F7727EF01C61B76
:10298000D70BBE01629FE001639FD00D729FD00DF7
:1029900011247F01E91AF108E09EB001E19E700D5B
:1029A000F09E700D1124672F7727E61BF70BE29F2F
:1029B0008001E39F100DF29F100D1124E12F722F63
:1029C0004230510599F048F44115510569F0413004
:1029D000510581F0EB2F8D2F07C04430510569F070
:1029E00080F046305105B1F76E2F8ECFE22F7B2F4E
:1029F000812FFACFE22F7D2FF7CFEB2F822F712F70
:102A0000F3CF7B2F822FED2FEFCF41E00E94711487
:102A1000089530E020E0869F212D969F200D311DE6
:102A20001124C9010895AC018230910508F408957C
:102A30009FEF413E8EE1580740F49A0195E03695AC
:102A400027959A95E1F798E0920F61E0E62FE90F5C
:102A5000FF27FF1F9F0135952795822F229FF001A9
:102A6000239FF00DF00D11244E175F0738F49FEFF0
:102A7000920F961758F78FEF860F08952F3FE9F3BF
:102A800061E0620FF6CF4091F6015091F70125E029
:102A900038E0429FC001439F900D529F900D11243A
:102AA000875E994C9093F7018093F601890F089502
:102AB000E82F86FDE0952E2F2F7086FD2F5FE6957F
:102AC000E695E695E670F0E0E158FD4F9181929F22
:102AD000902D212D112492959F702295207F922B6D
:102AE0002081920F87FD919580E8890F0895E42F4A
:102AF000F0E0EE0FFF1FE65AFE4F408134EE439F99
:102B0000412D1124E72FF0E050E0445E5F4FDA01E1
:102B1000A21BB1099D01B7FF03C031952195310971
:102B200093E0220F331F9A95E1F7AF01421B530B3D
:102B30009A0157FD20E0279F212D1124722F08951F
:102B4000E42FF0E0EE0FFF1FE65AFE4F408134EE17
:102B5000439F412D1124E82FF0E050E0445E5F4F89
:102B6000DA01A21BB1099D01B7FF03C03195219580
:102B7000310993E0220F331F9A95E1F7AF01421B11
:102B8000530B9A0157FD20E0582F259F212D11242A
:102B9000822F0895622F0895E42FF0E0EE0FFF1FBB
:102BA000E65AFE4F6081621B0895E42FF0E0EE0FBD
:102BB000FF1FE55AFE4F6081621B0895322F50E0DF
:102BC000FA01EE0FFF1FE55AFE4F9081905297FDDC
:102BD0009195440F551FFA01E65AFE4F2081231BA1
:102BE000330B290F311D97FD3A95620F0895EF922F
:102BF0000F93972F23E0029FB001112475956795DD
:102C00006E0D792F0F91EF9008950F93CF93DF936F
:102C1000D72FC82F47FD419588E390E0841B910989
:102C200047FD9395889FB001899F700D700D112409
:102C3000229FC001239F900D900D1124860F971F96
:102C40000E941315982F990F890F682F600F7D2F01
:102C50008C2FDF91CF910F9108950F931F93522FD7
:102C600010E0F801EE0FFF1FE55AFE4FA081A052C1
:102C7000BB0B9D015203F001539FF00D1124000F77
:102C8000111FD801A65ABE4F0C910057110B4003DB
:102C90009001419F300D11242E0F3F1F37FF02C0BE
:102CA00021583F4F220F232F221F330B620F1F91FA
:102CB0000F9108950F931F93522F10E0F801EE0F1C
:102CC000FF1FE55AFE4FA081A052BB0B9D0152038E
:102CD000F001539FF00D1124000F111FD801A65AC7
:102CE000BE4F0C910057110B40039001419F300DD6
:102CF00011242E0F3F1F37FF02C0215C3F4F96E08B
:102D0000359527959A95E1F7620F1F910F910895D8
:102D10000F931F9310E0F801EE0FFF1FE65AFE4FCE
:102D20009081905797FD9195000F111FF801E55A7A
:102D3000FE4F00810052110B2003F001219FF00D86
:102D4000112408E310E0091B110997FD13954003B6
:102D50009001419F300D1124E20FF31F9F01220FBC
:102D6000331F2E0F3F1F37FF02C021583F4F220F46
:102D7000232F221F330B620F1F910F9108950F9382
:102D80001F93CF93DF938B01D82FC42F822F0E94E4
:102D90005815EC2FF0E0EE0FFF1FE65AFE4F908122
:102DA0009058890F87FD8195880F682F2CE0629FCE
:102DB000612D1124600F712F8D2FDF91CF911F9105
:102DC0000F910895E42FF0E0EE0FFF1FE65AFE4F3B
:102DD0009081921B97FD9195292F38E1239F212DFA
:102DE0001124620F089520911D0630E1230F08F48D
:102DF0002FEF60E1822F90E00E940915BC0188EB63
:102E00009BE00E94873290E080E0089590918604D4
:102E1000892B809386040895FC019B01009729F477
:102E200080E077FF2BC080E80895AC0197FF04C0D5
:102E300044275527481B590BB901640F751F37FDEF
:102E400010C0241B350BC901A5E0880F991FAA9556
:102E5000E1F70E949B3280E2861BF7FF0FC081954D
:102E60000895CB0165E0880F991F6A95E1F7BA01D3
:102E7000621B730B0E949B3280E6EECF08950F9386
:102E80001F93CF93DF93D62F172FC82FC901272F5A
:102E9000201B022FBA010E940C17982F990F990F2F
:102EA000782F791B700F719F712D11246D2F8C2F2E
:102EB000DF91CF911F910F9108950F931F93CF939F
:102EC000DF93D62FC72F182FC901212F201B022FC8
:102ED000BA010E940C17982F990F990F891B800F28
:102EE000282F219F212D1124822F6D2F7C2FDF91E0
:102EF000CF911F910F910895EF920F931F93CF934E
:102F0000DF93D62F172FC82FC9010E19070FBA014B
:102F10000E940C17702F781B719F712D11246D2F3B
:102F20008C2FDF91CF911F910F91EF900895EF9229
:102F30000F931F93CF93DF93D62FC72F182FC9015D
:102F40000E19010FBA010E940C17081B202F219F98
:102F5000212D1124822F6D2F7C2FDF91CF911F9176
:102F60000F91EF9008950F93CF93DF93D72FC82F32
:102F7000C901BA010E940C17682F600F7D2F8C2F9A
:102F8000DF91CF910F910895EF920F93CF93DF933D
:102F9000D72FC82FC9010E19BA010E940C17602F34
:102FA000681B7D2F8C2FDF91CF910F91EF900895AB
:102FB00048E050E068E170E089E196E00E94513419
:102FC0001092860408950E9405150895E9E1F6E03F
:102FD00085E3808380910A0290910B02A0910C02FC
:102FE00081839283A3838FE784838FEF85830E94FD
:102FF000D8170895E0918D02F0918E0209950895F9
:10300000E0918902F0918A0209950895B0E0A0E06C
:10301000ECE0F8E10C94C0328C01FC01E654FE4F68
:103020008081682349F1D0901B06D0911C06C09185
:103030001A06EC2EF12C0E944315282FC7018C5440
:103040009F4F68E671E00E949B328E199F0997FDA1
:103050000396959587959595879523706C2F289F56
:10306000600D11247D2D8D2F0E94E317462F282FF0
:10307000672FC8010E940018CDB7DEB7E7E00C94B7
:10308000DC321F93CF93DF93EC01FC01E654FE4F3B
:1030900080816823B1F00E944315182F0E944315C8
:1030A00020E8829FC00111247FE7790F612F809172
:1030B0001C060E94E317462F282F672FCE010E947F
:1030C0000018DF91CF911F910895E0918B02F0914C
:1030D0008C02099508950E94B610089581E0089524
:1030E0000E946E180895982F990F990F890F95E0F7
:1030F000980F913308F090E30895B0E0A0E0E3E882
:10310000F8E10C94B9325C014B01FC0180810E9412
:103110007318C82F192F60911D066695809121069E
:10312000909122060E940915F82ED0E0C11748F0B0
:1031300081E0103308F080E0CDB7DEB7EEE00C940C
:10314000D532FE01E654FE4F8081F501918189233D
:10315000C9F1CE01880F991F8A5F9E4FFC01EC5A7E
:10316000FF4F2081422F4057550B6A018B5A9F4FCA
:10317000FC018081282F2052330B3901449F90019C
:10318000459F300D300D1124669CC001679C900D49
:10319000900D1124820F931F0E941315082F609128
:1031A0001A0670911B0680911C06EF2C9301A60154
:1031B000F40109950E94E317462F282F672FCE01AF
:1031C0000E9400182196B2CF6CE777E10E947D182B
:1031D000089567E977E10E947D18089567EF75E12A
:1031E0000E947D18089564EC77E10E947D1808958F
:1031F000B0E0A0E0EEEFF8E10C94BE326C017B0190
:10320000FC0180810E947318C82F192F60911D0640
:10321000669580912106909122060E940915B82E8C
:10322000D0E0C11748F081E0103308F080E0CDB75E
:10323000DEB7E9E00C94DA32FE01E654FE4F8081FD
:10324000F6019181892311F1CE01880F991F8A5FC0
:103250009E4FFC01EB5AFF4F20812052330B8C5ABA
:103260009F4FFC0140814057550B60911A067091A9
:103270001B0680911C060B2DF70109950E94E31790
:10328000462F282F672FCE010E9400182196C9CF04
:103290006FE377E10E94F81808956DE577E10E94E9
:1032A000F818089565E076E10E94F818089563EB38
:1032B00077E10E94F8180895B0E0A0E0E2E6F9E1B5
:1032C0000C94BF327C018B01FC0180810E94731839
:1032D000C82FD92E60911D066695669521E0620F74
:1032E00008F46FEF80912106909122060E94091543
:1032F000C82ED0E0CD1550F081E09FE29D1508F476
:1033000080E0CDB7DEB7E8E00C94DB32FE01E65496
:10331000FE4F8081F7019181892391F060911A0617
:1033200070911B0680911C062C2D4C2FF8010995DD
:103330000E94E317462F282F672FCE010E94001806
:103340002196D8CF67E775E10E945C19089560EA7D
:1033500075E10E945C1908956AEC75E10E945C19A0
:1033600008956CEC75E10E945C19089565ED75E1B6
:103370000E945C1908956EED75E10E945C19089534
:103380006FEB76E10E945C19089562EE76E10E948F
:103390005C190895B0E0A0E0E0EDF9E10C94BB32D7
:1033A0005C016B01FC0180810E947318C82FF92E0B
:1033B00060911D0666956695809121069091220682
:1033C0000E940915182F80E4810F0E94581590E87B
:1033D000992E980E812F0E94581520E8822E880E73
:1033E000D0E0CF1550F081E09FE29F1508F480E017
:1033F000CDB7DEB7ECE00C94D732FE01E654FE4FB9
:103400008081F50191818923A1F060911A06709164
:103410001B0680911C06E12E0C2F282D492DF6014C
:1034200009950E94E317462F282F672FCE010E948F
:1034300000182196D6CF6DE276E10E94CA19089550
:103440006AE576E10E94CA19089568E876E10E946B
:10345000CA190895B0E0A0E0E0E3FAE10C94BF32AD
:103460007C01FC0180810E947318C82F192F609184
:103470001A0670911B0680911C060E94E317062F06
:10348000D72EC82ED0E0C11748F081E0103308F0E5
:1034900080E0CDB7DEB7E8E00C94DB32FE01E65405
:1034A000FE4F8081F7019181892331F02C2D402F2F
:1034B0006D2DCE010E9400182196E5CFB0E0A0E06E
:1034C000E4E6FAE10C94BC327C01FC0180810E94AC
:1034D0007318C82F192FD0901B0600911C06D0918D
:1034E0001A066D2F7D2D802F0E94E317C62EB72E52
:1034F000A82E60911D066D0F7D2D802F0E94E31771
:10350000062FD72E982ED0E0C11748F081E0103357
:1035100008F080E0CDB7DEB7EBE00C94D832FE01C6
:10352000E654FE4F9081F7018181892359F0292DBE
:10353000402F6D2D90FD03C02A2D4C2D6B2DCE01FB
:103540000E9400182196E0CFB0E0A0E0EAEAFAE19C
:103550000C94BF327C01FC0180810E947318092FFA
:10356000D0901B06C0901C0620911D0610E4129FEF
:10357000112D1124C82FD0E0C01748F081E000338E
:1035800008F080E0CDB7DEB7E8E00C94DB32FE0156
:10359000E654FE4F8081F70191818923B9F0FE0145
:1035A000EE0FFF1FE55AFE4F808182958F7060916C
:1035B0001A06819F600D11247D2D8C2D0E94E3172A
:1035C000462F282F672FCE010E9400182196D4CFB6
:1035D000B0E0A0E0EEEEFAE10C94BF327C01FC0119
:1035E00080810E947318092FD0901B06C0901C0682
:1035F00020911D0610E4129F112D1124C82FD0E038
:10360000C01748F081E0003308F080E0CDB7DEB7A6
:10361000E8E00C94DB32FE01E654FE4F8081F701B6
:1036200091818923D9F0FE01EE0FFF1FE65AFE4F6C
:103630006081169FB001112495E0759567959A9564
:10364000E1F780911A06680F7D2D8C2D0E94E317FB
:10365000462F282F672FCE010E9400182196D0CF29
:10366000B0E0A0E0E6E3FBE10C94BF328C01FC018A
:1036700080810E947318C82FF92EE0901A06D0910D
:103680001B06D0901C0660911D0666956695669592
:1036900080912106909122060E9409150E945815DA
:1036A000805887FD8195880F282F3D2D239F212D40
:1036B0001124822F6E2D7D2F0E94E317E62ED72E28
:1036C000C82ED0E0CF1550F081E02FE22F1508F47E
:1036D00080E0CDB7DEB7E8E00C94DB32FE01E654C3
:1036E000FE4F8081F8019181892331F02C2D4E2DE0
:1036F0006D2DCE010E9400182196E4CFCF92DF926B
:10370000FF920F931F93CF93DF938C01FC01808175
:103710000E947318F92EF801928191112BC06091CB
:103720001D0620E1620F08F46FEF80912106909151
:1037300022060E9409156AE070E00E948732892BF8
:1037400061F40E944315F0E38F9FC0011124F8013A
:103750006181892F90E00E94061881E0FFE2FF1549
:1037600008F480E0DF91CF911F910F91FF90DF90DF
:10377000CF900895C82FD0E0CF2CD12CCC15DD05EB
:1037800064F7F8016181CE010E9406182196F6CFF8
:10379000CF92DF92FF920F931F93CF93DF938C0111
:1037A000FC0180810E947318F92EF8019281911119
:1037B0002BC060911D0620E1620F08F46FEF80912D
:1037C0002106909122060E94091565E070E00E9492
:1037D0008732892B61F40E944315F0E38F9FC0016B
:1037E0001124F8016181892F90E00E94411881E045
:1037F000FFE2FF1508F480E0DF91CF911F910F9158
:10380000FF90DF90CF900895C82FD0E0CF2CD12C1F
:10381000CC15DD0564F7F8016181CE010E944118E5
:103820002196F6CFB0E0A0E0E8E1FCE10C94BF32D5
:103830008C01FC0180810E947318C82FF92ED09052
:103840001B06E0901C06D0911A0660911D06669535
:103850006695669580912106909122060E94091531
:103860000E945815805887FD8195880F682F2CE09D
:10387000629F612D11246D0F7D2D8E2D0E940515E7
:10388000E62ED72EC82ED0E0CF1550F081E09FE273
:103890009F1508F480E0CDB7DEB7E8E00C94DB328A
:1038A000FE01E654FE4F8081F8019181892331F0B9
:1038B0002C2D4E2D6D2DCE010E9400182196E4CFA7
:1038C000A3E0B0E0E6E6FCE10C94B632782E8091FD
:1038D000F401871124C09091190693702091F5018D
:1038E00030E081E09217130609F480E08170809344
:1038F000F30180911E069091F201981739F08093A0
:10390000F20140E060E080E00E9465182EE127159A
:1039100090F0E72DF0E0ED56FB4C0C94AF3281E0D7
:10392000E5CF3091F3013983332361F040E060E06B
:1039300080E00E946518198205C081EF91E00E9425
:103940002A1A89838091F1018F5F8093F101E981C7
:10395000E1110CC082E08093F0018091F3018111AC
:1039600005C0711003C083E08093F0012396E1E16C
:103970000C94D23281EF91E00E945E1AE2CF81EF87
:1039800091E00E94A41ADDCF81EF91E00E94E81A35
:10399000D8CF81EF91E00E94301BD3CF81EF91E02F
:1039A0000E94A219CECF81EF91E00E94A719C9CF42
:1039B00081EF91E00E944819C4CF81EF91E00E940D
:1039C0004D19BFCF81EF91E00E94E418BACF81EF8B
:1039D00091E00E94E918B5CF81EF91E00E94AC1907
:1039E000B0CF81EF91E00E94B119ABCF81EF91E0B0
:1039F0000E94B619A6CF81EF91E00E94BB19A1CF1A
:103A000081EF91E00E94EE189CCF81EF91E00E943F
:103A1000521997CF81EF91E00E94571992CF81EF11
:103A200091E00E94F3188DCF81EF91E00E941B1A64
:103A300088CF81EF91E00E94201A83CF81EF91E03F
:103A40000E94251A7ECF81EF91E00E947E1B79CFE4
:103A500081EF91E00E94C81B74CF81EF91E00E943A
:103A6000121C6FCF81EF91E00E94C0196ACF81EFE5
:103A700091E00E94C51965CF8091F1010E947318F1
:103A8000192F4091210650912206609123067091D2
:103A900024068091820490918304A0918404B091C3
:103AA000850484179507A607B70708F047C00E944A
:103AB000431520E3829FF00111248F2F99279B83C8
:103AC0008A83FC01E654FE4F80819091F2018923A4
:103AD000A9F10E94431581FF37C000E070E080E04B
:103AE000602F0E94E317462F282F672F8A819B8122
:103AF0000E94001820911D0630E1230F08F42FEFDB
:103B000060E1822F90E00E940915BC0184EF91E0F2
:103B10000E9487328091210690912206A09123066F
:103B2000B0912406860F971FA11DB11D80938204BA
:103B300090938304A0938404B0938504F1E0F98307
:103B4000103308F4FFCEF7CE0E944315082F0E94D1
:103B50004315E0E88E9FC00111247FE7790F809123
:103B60001C06BECF40917E0450917F04609180047A
:103B7000709181048091210690912206A0912306E4
:103B8000B091240684179507A607B70708F4D3CE8B
:103B90008091F301811122C08091F1010E9473187C
:103BA000092F282F30E03B832A83C901880F991FF2
:103BB000880F991FFC01E254FC4F7F013A813017B6
:103BC00008F448C081E08983003308F0198200338B
:103BD00008F4B8CE20E00150110B6FC040E060E067
:103BE00080E00E94651810E000E00E9443159801F3
:103BF000220F331F220F331F3B832A8381FF0DC007
:103C000022543C4FF90110821182128213820F5FFD
:103C10001F4F0033110549F7BFCF0E944315F82EFF
:103C20000E944315F0E88F9FC00111247FE7790FB0
:103C30002A813B8122543C4F3B832A836F2D809104
:103C40001C060E940515EA81FB81608371838283D3
:103C50009383DDCFEA81FB81E654FE4F8081909112
:103C6000F201892341F0F7012281408161818A813B
:103C70009B810E940018F4E0EF0EF11C2A813B8129
:103C80002F5F3F4F3B832A8399CFDC01AA0FBB1FD5
:103C9000AA0FBB1FA254BC4F880F991F880F991FF2
:103CA000FC01EE53FC4F40815181628173814D9341
:103CB0005D936D937C9313972F5F822F90E0801715
:103CC00091071CF30E944315000F111F000F111FD5
:103CD00081FF20C0F801E254FC4F10821182128251
:103CE00013820E94F3160091210610912206209162
:103CF000230630912406DC01CB01800F911FA21F07
:103D0000B31F80937E0490937F04A0938004B093AC
:103D1000810418CE0E9443158A830E944315E0E86F
:103D20008E9FC00111247FE7790F02541C4F6A81D6
:103D300080911C060E940515F801608371838283BF
:103D40009383CFCF8091F301882329F040E060E096
:103D500080E00E9465188091F1010E947318392E4D
:103D6000409121065091220660912306709124060D
:103D70008091BA039091BB03A091BC03B091BD03A5
:103D800084179507A607B70708F081C060911A0647
:103D900070911B0680911C060E94E317662E572E19
:103DA000482E00E913E026E031E03B832A838AE5D0
:103DB000882E81E0982ECA80DB805601780132E09F
:103DC00001C031E03983F70121917F01F501819133
:103DD0005F0190E0222309F461C0242D462D652D5A
:103DE0000E940018F6018581242D462D652D90E056
:103DF0000E940018F701808131978083F1E0CF1A8B
:103E0000D10829812130E9F6EA81FB81828190E0A5
:103E1000F8012281222309F44CC0242D462D652D62
:103E20000E940018EA81FB818381242D462D652D97
:103E300090E00E9400180E944315837091E009F001
:103E400090E0F80192830D5F1F4F2A813B812A5F2A
:103E50003F4F3B832A838216930609F0ACCF0E9422
:103E6000F31600912106109122062091230630912D
:103E70002406DC01CB01800F911FA21FB31F80938A
:103E8000BA039093BB03A093BC03B093BD0381E03E
:103E900089839FE2931508F055CD4DCD20E040E099
:103EA00060E00E940018F601858120E040E060E0BB
:103EB0009ECF20E040E060E00E940018EA81FB8194
:103EC000838120E040E060E0B3CF81E008950E946C
:103ED000651F0895FC01808181500E947318692F2D
:103EE0000E94671F0895CF930E94E429609387047E
:103EF000709388048093890490938A0420918B04A2
:103F0000C0E0211108C020911906C22FC37019F01A
:103F1000C22FC695C6952091F0012130B1F0222321
:103F200031F0223011F1233059F1CF9108951092E0
:103F3000F1016093210670932206809323069093EB
:103F4000240681E08093F001F0CF8C2F0E94601C4A
:103F5000CC2359F38091F001823011F40E94701843
:103F600081EF91E00E946A1FE0CFC093F40180913D
:103F7000190683708093F5010E94FA1783E0E2CF5F
:103F80008091860481110E94D8176091210670915A
:103F9000220680912306909124060E94FF296A310F
:103FA00071058105910508F4C0CF1092F001BDCFD5
:103FB000E0918702F0918802099581E08093860460
:103FC00048E050E068E170E089E196E00E942D341D
:103FD00010928604809119068C7F11F40E94E617D6
:103FE0000895CF93C82F882391F080918B0481117D
:103FF0000EC00E94601C1092F4018091190683701B
:104000008093F5010E94FA1783E08093F001C0933A
:104010008B04CF910895E9E1F6E0908121E09227A9
:1040200090831092F0010E940617089581E00E948B
:104030000B20089590911906937051F0811109C0D9
:104040009460909319061092F001862F0E94061733
:1040500008958F3110F09867F4CF282F220F220F88
:10406000922BEFCF61E00E941A200895682F909163
:1040700019069695969581E0890F8F3108F081E0B9
:104080000E941A20089581E00E9436200895682F2A
:1040900090911906969596958FEF890F09F48EE108
:1040A0000E941A20089581E00E944720089590916F
:1040B0001906937049F080931A0660931B0640938B
:1040C0001C06822F0E9406170895A9E1B6E01196FA
:1040D000EC911197F0E0282F13964C9113971296BC
:1040E0006C91CF0108960E945720089581E00E94AC
:1040F00065200895E9E1F6E09181282F43816281EE
:10410000E92FE850FF0BCF010E945720089581E06E
:104110000E947A200895E9E1F6E0628120E1620FD1
:1041200008F46FEF9181282F4381892F90E00E943E
:104130005720089581E00E948B200895E9E1F6E080
:10414000628120E1621B08F460E09181282F4381A5
:10415000892F90E00E945720089581E00E949E20C0
:104160000895E9E1F6E0438120E1420F08F44FEFC2
:104170009181282F6281892F90E00E945720089515
:1041800081E00E94B1200895E9E1F6E0438120E159
:10419000421B08F440E09181282F6281892F90E032
:1041A0000E945720089581E00E94C4200895E9E10B
:1041B000F6E0248130E1230F08F42FEF24830E94DE
:1041C0000617089581E00E94D7200895E9E1F6E0FE
:1041D000248130E1231B08F420E024830E94061789
:1041E000089581E00E94E620089580931E0681E0F4
:1041F0000E9406170895A1E0B0E0E1E0F1E20C941E
:10420000C3324983E82FF0E0E157FD4F808104E697
:1042100010E021E030E0AE014F5F5F4F880F0E9459
:10422000AC2B2196E4E00C94DF32462F6DEF0E9418
:10423000FB200895EF92FF920F931F93CF93DF938C
:10424000282F30E094EA899FE0011124C457DB4F06
:1042500084E2F82E21573D4FF901E080EE0C04E690
:1042600010E020E130E0AE016F2D8E2D0E94AC2BCE
:10427000F0E1FF0E609684EBF812F1CFCDB7DEB718
:10428000E6E00C94DD32CF93DF93C82F6BE00E9401
:10429000152140E06AE08C2F0E94FB208FE39CE90F
:1042A0000197F1F700C0000040E060E08C2F0E9411
:1042B000FB2040E061E08C2F0E94FB2040E066E0A4
:1042C0008C2F0E94FB2060E08C2F0E941521D0E0F3
:1042D00040E06D2F8C2F0E94FB20DF5FD231C1F7B1
:1042E00040E06D2F8C2F0E94FB20DF5FD432C1F79E
:1042F00040E06D2F8C2F0E94FB20DF5FD43BC1F785
:104300006BE08C2F0E94152141E06AE08C2F0E9407
:10431000FB2060E08C2F0E941521DF91CF91089542
:10432000A4E0B0E0E6E9F1E20C94C132F62E042FED
:10433000122F8033910508F047C0880F991F880F0E
:10434000991FBC0164557F4F44E050E0CE010196B7
:104350000E941734898183702A8130E0482F50E011
:1043600064EA869FC001112484579B4FFC01E20F31
:10437000F31F6081AB81EC806F110DC0BC016A0F2F
:10438000711DFB016081601306C08E0D911DFC0143
:1043900080818117C9F064EA649FC001659F900D18
:1043A000112484579B4F280F391FF901F082A80F61
:1043B000B92FB11D0C93FC01EE0DF11D1083805738
:1043C0009F4F21E0FC0120832496E6E00C94DD322F
:1043D000FF920F931F93CF93DF93182F062FF42E86
:1043E000D0E0C0E02F2D402F612FCE010E94902100
:1043F0002196C033D105B1F7CDB7DEB7E5E00C9417
:10440000DE32A4E0B0E0E7E0F2E20C94C232F62E35
:10441000042F122F24E0829FB001112464557F4F96
:1044200044E050E0CE0101960E9417349A817B81CE
:10443000F72FF695F695F6956C81E62FE695E695BD
:10444000E69577706770A92FA695A695A695B0E01A
:10445000977021E030E001C0220F9A95EAF7898138
:10446000982F937044EA949FA00DB11D1124A35E70
:10447000BA4FFF2009F442C09C91922B9C93837009
:10448000482F50E024EA829FC001112484579B4F9B
:104490008F0F911DDC01AF56BF4F9C9121E030E0A2
:1044A00001C0220F7A95EAF7002369F1292B2C939A
:1044B00024EA249FC001259F900D112484579B4F0F
:1044C000E80FF92FF11DEF56FF4F208181E090E0BA
:1044D00001C0880F6A95EAF71123C1F0822B80830F
:1044E00084EA849FF001859FF00D1124E15DFA4F6D
:1044F00081E080832496E5E00C94DE32922F909543
:104500002C919223BBCF20952923D1CF8095822354
:10451000E6CFCF93DF9394EA899FE0011124C45E34
:10452000DA4F9881992319F00E941A211882DF919D
:10453000CF910895EF92FF920F931F93CF93DF9344
:10454000082FE82EF12CC4EACE9DF001CF9DF00D8E
:104550001124E15DFA4F80818823B9F00C9FE001BE
:104560001124C35EDA4F10E04991612F802F0E9421
:10457000FB201F5F1231C1F784EA8E9DF0018F9DF1
:10458000F00D1124E15DFA4F1082CDB7DEB7E6E001
:104590000C94DD32CF930E94CE2A80E00E9443210A
:1045A00081E00E944321C0E021E041E061E08C2FE6
:1045B0000E940122CF5FC033B9F780E00E949A22A7
:1045C00081E00E949A22CF91089580E00E94892282
:1045D00081E00E9489220895FA01811101C0FB0146
:1045E000099508951F93CF93DF93EC01FB0115818B
:1045F000111110C00E949E0E8272FE01E052F84717
:10460000E531F10508F049C0EE54FB4C0C94AF3293
:104610000E941620812FDF91CF911F91089543E5CD
:1046200050E263E470E20E94EC22F4CF43E450E2F3
:1046300063E570E2F8CF47E850E266E770E2F3CF57
:1046400046E750E267E870E2EECF4DEA50E26AE9F1
:1046500070E2E9CF4AE950E26DEA70E2E4CF43ED5F
:1046600050E260EC70E2DFCF40EC50E263ED70E2CC
:10467000DACF41EF50E262EE70E2D5CF42EE50E287
:1046800061EF70E2D0CF81E00E943220C3CF85E09D
:10469000FBCF8DE0F9CF82E1F7CF11E0BBCFCF9315
:1046A000DF93EB0186319C4711F50E949E0E9D81A0
:1046B000992399F08A7A91E009F490E09093D405D7
:1046C000811109C089E20E94C1280E94520F80E036
:1046D000DF91CF91089585E3F6CF8091D4058111C4
:1046E00004C089E20E94D828F0CF85E3FBCF81E0A7
:1046F000EFCFCF93DF93EC01FB018581882309F491
:10470000D2C09E0130572332310508F0B2C00E945A
:10471000DC0F9093FC058093FB05FE01E150F04710
:10472000E232F10520F4E953FB4C0C94AF32809156
:10473000FB0581608093FB0593C08091FC05886038
:104740008093FC058DC08091FB058260F3CF809142
:10475000FB058460EFCF8091FB058860EBCF8091F3
:10476000FC058160EDCF8091FC058260E9CF8091EE
:10477000FB058061DFCF8091FB058062DBCF8091FC
:10478000FB058064D7CF0E94220A8091FB058068D8
:10479000D1CF8091FB058C60CDCF8091FC058360EB
:1047A000CFCF8091FB058E7FC5CF8091FC05877FA1
:1047B000C7CF8091FB058D7FBDCF8091FB058B7F9F
:1047C000B9CF8091FB05877FB5CF8091FC058E7FA7
:1047D000B7CF8091FC058D7FB3CF8091FB058F7E95
:1047E000A9CF8091FB058F7DA5CF8091FB058F7BA5
:1047F000A1CF0E94220A8091FB058F779BCF8091E9
:10480000FB05837F97CF8091FC058C7F99CF8091AA
:10481000FB0582FB992790F921E0922790FB82F912
:1048200090FB83F987CF8091FC05982F909591702C
:104830008E7F892B90FB81F983CF9091FB05892F87
:104840008F7B96FF806476CF0E94220A9091FB05B1
:10485000892F97FB87F980586DCF81E00E94671000
:104860008091FB059091FC050E94E10F0E94220AB5
:1048700080E0DF91CF91089580E0F0CF9091FB052B
:10488000892F8F7E94FF806155CF9091FB05892FF2
:104890008E7F90FF81604ECF9091FC05892F877F9E
:1048A00093FF88604DCF81E0E4CF282F35EB2303C1
:1048B000C001112497FF04C080589109892F0895E1
:1048C00080589F4FFBCF8091DC0580FF0DC0609129
:1048D000FD0170E0660F771F6038710570F5611596
:1048E000710569F1862F089581FF07C06091FD0170
:1048F00084E0689FB0011124EFCF6091FD0182FD3B
:104900000AC08091DB058823A9F02091FC01609109
:10491000FD01821710F088E0ECCF869FC0011124C2
:1049200033E0880F991F3A95E1F7622F70E00E94FB
:104930009B32D2CF68E070E0D5CF8FE7089581E059
:1049400008958091DC0580FF0CC06091F90170E052
:1049500075956795759567956115710549F1862F70
:10496000089581FF06C06091F90170E07595679523
:10497000F3CF6091F90182FD0BC09091DA05992384
:10498000A1F06091F8018091F901961738F0682F35
:1049900070E06038710500F38FE70895899FC001CA
:1049A000112470E00E949B32F4CF61E070E0D7CF19
:1049B00081E008959091DE052091DF05922B2091F2
:1049C000E105922B2091E005922B31F098E0909335
:1049D000DB0591E09093DA058D3C31F40E9463246D
:1049E00081958093DF0508958E3C19F40E9463241D
:1049F000F8CF8F3C31F40E94632481958093DE05CB
:104A00000895803D19F40E946324F8CF893D29F46C
:104A10000E94A1248093E00508958A3D21F40E941C
:104A2000A1248195F7CF8B3D31F40E94A12481957B
:104A30008093E10508958C3D19F40E94A124F8CFDC
:104A40009FE2980F983070F4815D990B21E030E07F
:104A500001C0220F8A95EAF78091DD05822B8093B1
:104A6000DD0508958D3D31F48091DC0581608093F2
:104A7000DC0508958E3D21F48091DC058260F7CF3E
:104A80008F3DB9F78091DC058460F1CF4091DE0560
:104A90008D3C59F48091DF0587FF0DC01092DF0532
:104AA00041110BC01092DB0508C08E3C81F480914F
:104AB000DF0518169CF3442381F08091E005909166
:104AC000E105892B09F05AC01092DA0508958F3C50
:104AD00049F447FFF0CF1092DE058091DF05811188
:104AE000ECCFE0CF803D19F41416ACF3E4CF9091F5
:104AF000E005893D29F41916F4F61092E005DBCFA4
:104B00008A3D19F497FFD7CFF8CF9091E1058B3DFF
:104B100029F497FFD0CF1092E105CDCF8C3D19F449
:104B20001916CCF3C8CF9FE2980F983090F4815DAE
:104B3000990B21E030E0B90102C0660F771F8A951A
:104B4000E2F7CB0180959091DD0589238093DD0507
:104B5000B2CF8D3D31F48091DC058E7F8093DC05F2
:104B6000AACF8E3D21F48091DC058D7FF7CF8F3D5C
:104B700009F0A1CF8091DC058B7FF0CF08950E94D2
:104B8000D8299C019091DE058091DF05982B21F0BA
:104B90003093D9052093D8059091E0058091E105E7
:104BA000982B21F03093D7052093D6058DED95E015
:104BB0000E94C127089585E0EDEDF5E0DF011D922B
:104BC0008A95E9F71092DB051092DA051092DC0560
:104BD0000895FC01818181110EC0828181110BC079
:104BE0008381811108C091E08481811101C090E02E
:104BF000892F8170089581E0FCCFA5E0B0E0E3E06B
:104C0000F6E20C94C43285E0EDEDF5E0DE0111969C
:104C100001900D928A95E1F71092DE051092DF0562
:104C20001092E0051092E1058A819B81892B89F021
:104C30008091D8059091D9050E94F029AC019091FE
:104C4000DB059923C9F18091FE018417150608F44C
:104C500040C08C819D81892B91F08091D6059091E7
:104C6000D7050E94F029AC019091DA05992309F447
:104C70006AC08091FA018417150608F472C0BE015B
:104C80006F5F7F4F8DED95E00E940929811105C06E
:104C90008DED95E00E94E92581110E94BF2585E0F8
:104CA000FE013196ADEDB5E001900D928A95E1F7E8
:104CB0002596E3E00C94E0322091D5058AE0289F08
:104CC000900111242417350720F69F5F9093DB0590
:104CD00002C09F3FD1F71A81112359F00E9463242B
:104CE0009FEF11160CF491E0899F802D1124809381
:104CF000DE051B81112359F00E9463249FEF1116DA
:104D00000CF491E0899F802D11248093DF05809120
:104D1000DE05882309F49DCF1091DF05112309F4E6
:104D200098CF0E945524882351F08093DE05812F6F
:104D30000E945524882329F08093DF058ACF81E0E3
:104D4000F4CF81E0F9CF2091FB018AE0289F900108
:104D500011242417350708F092CF9F5F9093DA054E
:104D600002C09F3FD1F71C81112359F00E94A1245A
:104D70009FEF11160CF491E0899F802D11248093F0
:104D8000E0051D81112359F00E94A1249FEF111607
:104D90000CF491E0899F802D11248093E10580918E
:104DA000E005882309F46BCF1091E105112309F484
:104DB00066CF0E945524882351F08093E005812F0F
:104DC0000E945524882329F08093E10558CF81E083
:104DD000F4CF81E0F9CF0F931F93CF93DF93C42FCC
:104DE000D22FFC0185818823C9F04093E4050E94FD
:104DF000D8299093E3058093E20580E28C0F8830F8
:104E000040F4C77081E001C0880FCA95EAF70E949C
:104E1000CE07DF91CF911F910F9108951091E40576
:104E2000141332C08091E2059091E3050E94F029AD
:104E3000883C910548F5C0E2CD0F1D17B9F080E21E
:104E4000810F883040F4177081E001C0880F1A95F7
:104E5000EAF70E94D507C83048F481E09D2F97708B
:104E600001C0880F9A95EAF70E94CE07802F0E9412
:104E7000C507C83070F6D77081E001C0880FDA9599
:104E8000EAF70E94D507C5CF80E28C0F883008F67C
:104E9000C77081E001C0880FCA95EAF7F2CF0F937F
:104EA000DB0188519C4787309105A0F5FC01E75153
:104EB000FB4C0C94AF3206E221EE41EE6AE17CE756
:104EC000CD010E94EB2680E00F91089507E225EEC8
:104ED00045EE6BE17CE7F4CF06E221EE40EE68E1BF
:104EE0007CE7EECF07E225EE44EE69E17CE7E8CF10
:104EF00006E221EE42EE6CE17CE7E2CF07E225EE2E
:104F000046EE6DE17CE7DCCF08E221E045EE6EE1A4
:104F10007CE7D6CF15968C91882319F01092E40582
:104F2000D3CF81E0D1CF9093EA058093E90508952E
:104F3000E091E905F091EA05309729F00190F081C0
:104F4000E02D0995089580E008950E94982708951E
:104F5000E091E905F091EA05309721F00280F381B4
:104F6000E02D09950895E091E905F091EA05309763
:104F700039F026E0DC012C930480F581E02D0995C1
:104F80000895E091E905F091EA05309721F0068057
:104F9000F781E02D09950895A3E0B0E0E2EDF7E296
:104FA0000C94C5322091E7053091E80528173907A0
:104FB000A1F09093E8058093E705E091E905F09171
:104FC000EA05309751F023E029839B838A8300848C
:104FD000F185E02DCE01019609952396E2E00C942F
:104FE000E132A3E0B0E0E7EFF7E20C94C5322091A4
:104FF000E5053091E60528173907A1F09093E605FD
:105000008093E505E091E905F091EA05309751F0CC
:1050100024E029839B838A830084F185E02DCE01DF
:10502000019609952396E2E00C94E1322091EE017D
:105030003091EF012E5F3F4F80910902882379F074
:105040008091FB0587FF0BC02091EC013091ED01B1
:105050002E5F3F4F9EE180E0915018F4089596E056
:10506000FACFF90141919F014423B1F38F5FF4CF4F
:10507000882321F190910902992311F19091FB0568
:1050800097FF1EC0E82FE695E695E695EE31B0F461
:105090002091EC013091ED01E20FF32FF11D2281FF
:1050A00030E0877041E050E002C0440F551F8A9500
:1050B000E2F72423352381E0232B91F480E0089547
:1050C0002091EE013091EF01F9013296285F3F4FB8
:1050D0009191981721F0E217F307D1F7EFCF81E014
:1050E00008959C01FC0132969FEF80E041914617A4
:1050F00051F09F3F19F4411101C0982F8F5F863006
:10510000A9F79F3F09F40895290F311D97FD3A959E
:10511000F90162830895FC013296089621912613C5
:1051200003C0DF0111971C92E817F907B9F708953A
:10513000E62FE695E695E695EE3168F4E80FF92F4F
:10514000F11D677021E030E001C0220F6A95EAF797
:105150008281822B82830895E62FE695E695E69577
:10516000EE3170F4E80FF92FF11D677021E030E0A7
:1051700001C0220F6A95EAF72095828128232283B5
:105180000895682F80910902882359F08091FB05CA
:1051900087FF07C08091EC019091ED010E94982853
:1051A00008958091EE019091EF010E947128089579
:1051B000682F80910902882359F08091FB0587FFB1
:1051C00007C08091EC019091ED010E94AC280895F8
:1051D0008091EE019091EF010E948B2808958091BB
:1051E0000902882379F08091FB0587FF0BC0E091CD
:1051F000EC01F091ED0132968EE1DF011D928A956E
:10520000E9F70895E091EE01F091EF01329686E022
:10521000F4CFDC01FB019C918081981322C0119690
:105220008C911197882319F0918189131AC01296D5
:105230008C911297882319F09281891312C01496C9
:105240008C911497882319F0948189130AC01396BE
:105250009C91992321F081E02381291303C080E0F0
:1052600001C081E08170089508950E943429089555
:10527000811106C081E08093EB050E9435290895D5
:1052800082E0F9CF83E08093EB050E9435290895F1
:105290000E943829089581E08093EB050E9435290A
:1052A00008950E944B290895089508950E94552954
:1052B000089508950E9454290895CF930E941B04D5
:1052C0000E949A130E945929C0E08C2F0E948113DA
:1052D000811105C0CF5FCE30C1F7CF91089581E035
:1052E000FCCF85B7806885BF85B7806885BF089586
:1052F0001F921FB61F9211248F939F93AF93BF935A
:105300008091EC05811113C08091250690912606AD
:10531000A0912706B09128064196A11DB11D80934A
:10532000250690932606A0932706B0932806BF91E2
:10533000AF919F918F911F901FBE1F9018958091E4
:105340002D06843031F10E9431061092EC0588E17F
:1053500090E020E40FB6F894A895809360000FBE0B
:105360002093600083B7817F846083BF83B78160AF
:1053700083BF7894889583B78E7F83BF0FB6F894E8
:10538000A895809160008861809360001092600011
:105390000FBE08950E94220A0E943B06089582E0F3
:1053A00084BD93E095BD9AEF97BD80936E000895FC
:1053B0002FB7F8948091250690912606A091270694
:1053C000B09128062FBF08952FB7F8946091250655
:1053D0007091260680912706909128062FBF089588
:1053E0009C014FB7F8948091250690912606A091D4
:1053F0002706B09128064FBF821B930B0895CF92CA
:10540000DF92EF92FF922FB7F894C0902506D090CC
:105410002606E0902706F09028062FBFA7019601E8
:10542000261B370B480B590BCA01B901FF90EF90AF
:10543000DF90CF90089578941F921FB61F92112489
:105440008F939F93AF93BF938091250690912606EB
:10545000A0912706B09128060196A11DB11D809349
:10546000250690932606A0932706B0932806BF91A1
:10547000AF919F918F911F901FBE1F901895F89428
:1054800081E08093E00080E28093D800E9ECF0E0D6
:1054900010828FE19EE40197F1F700C000001DBA71
:1054A000109268001CBC10BE1FBA10927A001092B5
:1054B0006E0010926F0010927100109272001082B4
:1054C000ECEBF0E0108214B817B81AB81DB810BA97
:1054D000108215B818B81BB81EB811BA0C94003F4A
:1054E000089588E19AE00FB6F894A895809360003B
:1054F0000FBE90936000FFCFEF92FF920F931F9328
:10550000CF93DF93182FEB011092BC0084EA8093B5
:10551000BC000E94D8297C018091BC0087FF27C075
:105520008091B900887F883029F08091B900887F08
:10553000803189F51093BB0084E88093BC000E9401
:10554000D8298C018091BC0087FF1EC02091B90032
:10555000287F90E080E0283191F081E090E02034D5
:1055600011F490E080E091958195910908C0C70100
:105570000E94F029C817D90778F68EEF9FEFCDB7B4
:10558000DEB7E6E00C94DD32C8010E94F029C817AE
:10559000D907C0F6F2CF8FEF9FEFF1CF1092B9008D
:1055A0008CE08093B80008950F931F93CF93DF93FF
:1055B000EB018093BB0084E88093BC000E94D82953
:1055C0008C018091BC0087FF11C02091B900287F19
:1055D00081E090E0283211F490E080E0919581958F
:1055E0009109DF91CF911F910F910895CF3FDC0773
:1055F00041F3C8010E94F029C817D90710F78EEFB0
:105600009FEFEFCF0F931F93CF93DF93EC0184ECC9
:105610008093BC000E94D8298C018091BC0087FF38
:1056200008C08091BB0090E0DF91CF911F910F9156
:105630000895CF3FDC0789F3C8010E94F029C817FD
:10564000D90758F78EEF9FEFEFCF0F931F93CF93AC
:10565000DF93EC0184E88093BC000E94D8298C0180
:105660008091BC0087FF08C08091BB0090E0DF9173
:10567000CF911F910F910895CF3FDC0789F3C801A7
:105680000E94F029C817D90758F78EEF9FEFEFCF88
:10569000B0E0A0E0EEE4FBE20C94BA327B014A01F8
:1056A0008901782E689470F80E94D8295C01CC2476
:1056B000C394D12C0431110560F085E0C82ED12CA3
:1056C0000F3F100731F0C80164E170E00E9487329B
:1056D0006B01B601872D0E947C2AEC0197FF09C05F
:1056E0000F3F1007B1F3C5010E94F02908171907F1
:1056F00080F7D12CC12CF1E08F1A9108C814D9047D
:10570000F0F4D7FF0EC084E98093BC00CE011C16D4
:105710001D0614F490E080E0CDB7DEB7EDE00C9408
:10572000D632C8010E94022BEC0197FD04C0F7019C
:10573000EC0DFD1D8083EFEFCE1ADE0ADFCFD7FD23
:10574000E2CFC8010E94252BEC0197FDDCCFE80CCD
:10575000F91CF7018083D7CFB0E0A0E0E2EBFBE2D9
:105760000C94B932682E762E5A0169010E94D8290C
:105770004C01C1E0D0E00431110558F0C5E0D0E0A3
:105780000F3F100731F0C80164E170E00E948732DA
:10579000EB01BE01862D0E947C2A7C0197FF1DC073
:1057A0000F3F1007B1F3C4010E94F0290817190731
:1057B00080F784E98093BC00C701CDB7DEB7EEE087
:1057C0000C94D532B80189910E94D42A7C01CC1660
:1057D000DD0679F3F7FEF6CFECCFB801872D0E94F6
:1057E000D42A7C01E501CA0CDB1CF1CF8091F505C0
:1057F00008959B01BA0190912D069430E9F48F70C1
:105800008093E9009FEF8091E800915085FD06C0EC
:1058100085ED8A95F1F700009111F5CF8091E800B0
:1058200085FF0AC050E040E0C9010E94002E80912F
:10583000E8008E778093E800089543E050E0BC01D3
:1058400083E00E94F92B089545E050E0BC0182E01E
:105850000E94F92B089540E250E0BC0183E00E94D1
:10586000F92B0895CF93DF93EC0148E050E0BC01A1
:1058700081E00E94F92B88E0FE01ADEEB5E00190D9
:105880000D928A95E1F7DF91CF91089580912C06D2
:10589000811109C00E94902F0E94ED2F8091E2009B
:1058A00084608093E200089510922C0608950E946F
:1058B0004B2908956091290681E0611101C080E0C3
:1058C0000E944229089590912D0681E0943009F0BC
:1058D00080E0609129060E944829089542E061EC29
:1058E00081E00E940C2F42E161EC82E00E940C2FCB
:1058F00042E261EC83E00E940C2F90912D0681E042
:10590000943009F080E0609129060E9438290895BA
:1059100080912F06833009F463C030F48130E1F1C7
:10592000823009F4A0C008958A3009F48CC08B300D
:1059300009F471C0893009F052C080912E0681327D
:1059400009F04DC08091320690913306009719F00E
:10595000029709F044C08091E800877F8093E800B7
:105960008091E80082FF37C09091F3008091F200AF
:10597000029731F48091F100813011F0863021F4EA
:105980008091F1008093F5058091E8008B778093FA
:10599000E8000E94402F23C080912E06813AF9F43E
:1059A0008091E800877F8093E80080913206909193
:1059B0003306892B61F468E08DEE95E070E00E947B
:1059C0004F2E8091E8008B778093E800089560E087
:1059D00090E080E0F3CF80912D068111C1CF089532
:1059E00080912E06813AD9F7809132069091330644
:1059F000892BA9F78091E800877F8093E800809148
:105A0000E80080FFFCCF809109028093F100809133
:105A1000E8008E77BCCF80912E06813201F780910D
:105A2000320690913306892BD1F68091E800877F6A
:105A30008093E8000E94402F8091300680930902F5
:105A40000E94220A089580912E06813241F68091AB
:105A5000E800877F8093E8000E94402F8091310604
:105A60008093F605089580912E06813A09F0B7CF0C
:105A70008091E800877F8093E8008091E80080FFB4
:105A8000FCCF8091F605C1CF84B7877F84BF0FB666
:105A9000F894A895809160008861809360001092CE
:105AA00060000FBE80E890E00FB6F894809361002C
:105AB000909361000FBE0E94512908950E94902F7B
:105AC0000E94ED2FE2EEF0E0808184608083789484
:105AD0000E946C3208958FEF91E00E949327089501
